:100000000C9434000C9449000C9449000C94490061
:100010000C9449000C9449000C9449000C9449003C
:100020000C9449000C9449000C9449000C9449002C
:100030000C9449000C9449000C9449000C9449001C
:100040000C9449000C9449000C9449000C9449000C
:100050000C9449000C9449000C9449000C944900FC
:100060000C9449000C94490011241FBECFEFD8E036
:10007000DEBFCDBF11E0A0E0B1E0E4E5F2E002C0F8
:1000800005900D92AA30B107D9F70E945A000C943E
:1000900028010C94000095B19F6095B96BB995B19A
:1000A0008095892385B98FE99FE00197F1F700C01A
:1000B0000000089500D000D00F92CDB7DEB78FEFCB
:1000C0008AB984B18F6084B985B18F6085B980E4C5
:1000D00080937C0087E880937A0088248A9483E068
:1000E000982EA12CB12C98EEC92E93E0D92E24E69F
:1000F000E22EF12C0AE010E080917A008064809377
:100100007A0080917A00282F2074298386FDF9CF08
:1001100020917800309179002430310588F460E036
:1001200081E00E944B0060E082E00E944B0060E0B2
:1001300084E00E944B0060E088E00E944B00DCCF2E
:10014000A2EDB0E00E9419016A837B838C839D83BA
:10015000A50194010E94F700C9018A599C4F9B8315
:100160008A83883E934010F086E08983698181E02C
:100170000E944B008A819B81B6010E94E300B70177
:100180000E94E300FB01E050FF4F608182E00E948B
:100190004B008A819B81B7010E94E300B8010E9455
:1001A000E300FB01E050FF4F6081606884E00E9443
:1001B0004B008A819B81B8010E94E300FC01E05062
:1001C000FF4F6081B9CFAA1BBB1B51E107C0AA1F1B
:1001D000BB1FA617B70710F0A61BB70B881F991FE8
:1001E0005A95A9F780959095BC01CD010895A1E29B
:1001F0001A2EAA1BBB1BFD010DC0AA1FBB1FEE1FA1
:10020000FF1FA217B307E407F50720F0A21BB30BEB
:10021000E40BF50B661F771F881F991F1A9469F767
:1002200060957095809590959B01AC01BD01CF01C3
:100230000895A29FB001B39FC001A39F700D811DBF
:100240001124911DB29F700D811D1124911D0895DF
:04025000F894FFCF50
:0A0254003F065B4F666D7D077F6F6C
:00000001FF
