:100000000C9434000C9449000C9449000C94490061
:100010000C9449000C9449000C9449000C9449003C
:100020000C9449000C9449000C9449000C9449002C
:100030000C9449000C9449000C9449000C9449001C
:100040000C9449000C9449000C9449000C9449000C
:100050000C9449000C9449000C9449000C944900FC
:100060000C9449000C94490011241FBECFEFD8E036
:10007000DEBFCDBF11E0A0E0B1E0ECE5F2E002C0F0
:1000800005900D92AA30B107D9F70E945E000C943A
:100090002C010C94000095B19F6095B99AE19A9556
:1000A000F1F700C06BB995B18095892385B98FE9C7
:1000B0009FE00197F1F700C00000089500D000D044
:1000C000CDB7DEB78FEF8AB984B18F6084B985B1BF
:1000D0008F6085B980E480937C0087E880937A0004
:1000E00088248A9483E0982EA12CB12C98EEC92EF6
:1000F00093E0D92E24E6622E712C0AE010E0809164
:100100007A00806480937A0080917A00282F20748E
:10011000522E86FDF9CF209178003091790022305F
:10012000310588F460E081E00E944B0060E082E0ED
:100130000E944B0060E084E00E944B0060E088E099
:100140000E944B00DCCFA2EDB0E00E941D0169834C
:100150007A838B839C83A50194010E94FB00C901D3
:100160008A599C4F9A838983B6010E94E7007C01DB
:10017000E981FA81E83EF34020F060507F4FFB01B7
:100180005080652D81E00E944B00C701B3010E94A1
:10019000E7007C0160507F4FFB01608182E00E949C
:1001A0004B00C701B8010E94E700FB01E050FF4F80
:1001B0006081606884E00E944B0089819A81B80167
:1001C0000E94E700FC01E050FF4F6081B8CFAA1BFE
:1001D000BB1B51E107C0AA1FBB1FA617B70710F032
:1001E000A61BB70B881F991F5A95A9F78095909564
:1001F000BC01CD010895A1E21A2EAA1BBB1BFD0173
:100200000DC0AA1FBB1FEE1FFF1FA217B307E407F5
:10021000F50720F0A21BB30BE40BF50B661F771F4D
:10022000881F991F1A9469F760957095809590952D
:100230009B01AC01BD01CF010895A29FB001B39F06
:10024000C001A39F700D811D1124911DB29F700DDF
:0C025000811D1124911D0895F894FFCF2A
:0A025C003F065B4F666D7D077F6F64
:00000001FF
